:020000020000FC
:0200000029C015
:1000080000C0F8940F931F932F933F935F934F93E0
:1000180051E04427050E141E002D112D20E137E272
:100028005DD04AD0062F6ED0502E072F6BD0402EB1
:10003800082F68D0302E092F65D0202E4F915F9160
:100048003F912F911F910F91789418950F9300E08D
:100058000FBD0CE00EBD0AE70BBD02E10ABD00E4CE
:1000680009BF0F91789402E0602E04E0702E08E03A
:10007800802E00E1902E1FE717BB11BB0F9368BAC3
:10008800002702BB52BA4BD00F910F9378BA0027C2
:1000980002BB42BA44D00F910F9388BA002702BB23
:1000A80032BA3DD00F910F9398BA002702BB22BAFB
:1000B80036D00F910000E2CF2F933F9328EE33E024
:1000C8000DD0622F24E6332709D0722F2AE0332778
:1000D80005D0822F902F3F912F9108954F935F93D2
:1000E8008F939F938827992703C0021B130B0196B0
:1000F80002171307D0F7282F392F9F918F915F91FF
:100108004F910895ECE1F1E00A9512F03196FCCF99
:10011800049108953F065B4F666D7D07FF6F8F93CF
:100128009F9382E090E005D00197E9F79F918F9126
:1001380008958F939F938EEC97E00197F1F79F9125
:060148008F9198940895C8
:00000001FF
